:03000000020E0FDE
:0C0E0F00787FE4F6D8FD75810F020E56C6
:08138D0050454D4355200A00B4
:101271007F01121395E4F58E12134012038E12139F
:101281000D7BFF7A13798D1212B412131F121330D2
:1012910012136B12134F120F7D120FD11210251260
:1012A10010791210CD1211211211751211C91212D9
:0312B1001D80E3BA
:10130D007F1B121395759BB075BB03759DC712138B
:02131D009B2211
:1012E8009001DEEFF07F1C1213959001DEE0FFB451
:1012F8000A05759C0D80028F9CE59B30E1FB539B92
:05130800FD12139B2201
:1012B4009001DBEBF0A3EAF0A3E9F07F1D12139594
:1012C4009001DBE0FBA3E0FAA3E0F91209FAFF6066
:1012D4000F1212E89001DCE475F001120A7480E048
:0412E40012139B2224
:10000E000000000000041011121301130000000282
:10001E00121300000000000000041011121301134F
:10002E000000000212130000000000000004101176
:10003E001213011300000002121300000000000052
:10004E00000410111213011300000002121300001D
:10005E00000000000112000000000000011200006C
:10006E00000000000112000000000000011200005C
:10007E00000000000111011100000000011101112A
:10008E00000000000111011100000000011101111A
:10009E00000000000110011000000000011001100E
:1000AE0000000000011001100000000001100110FE
:1000BE000810111213141516170414151617000034
:1000CE00000004141516170000000004141516176E
:1000DE000000000008101112131415161704141541
:1000EE001617000000000414151617000000000477
:1000FE00141516170000000008101112131415160F
:10010E001704141516170000000004141516170016
:10011E00000000041415161700000000081011123C
:10012E0013141516170414151617000000000414E6
:10013E001516170000000004141516170000000015
:10014E001008090A0B0C0D0E0F0001020304050620
:10015E00071008090A0B0C0D0E0F0001020304050F
:10016E0006071008090A0B0C0D0E0F0001020304FE
:10017E000506071008090A0B0C0D0E0F00010203ED
:10018E000405060708000102030405060700000027
:10019E00000000000008000102030405060700002D
:1001AE00000000000000080001020304050607001D
:1001BE00000000000000000800010203040506070D
:1001CE000000000000000000080001020304050604
:1001DE0007000000000000000008000102030405F3
:1001EE0006070000000000000000080001020304E2
:1001FE0005060700000000000000000800010203D1
:10020E0004050607000000000000000004040506B7
:10021E0007000000000000000000000000040405BC
:10022E0006070000000000000000000000000404AB
:10023E00050607000000000000000000000000049A
:10024E00040506070000000000000000000000008A
:10025E000000000000000000000000000000000090
:10026E000000000000000000000000000000000080
:10027E000000000000000000000000000000000070
:10028E000000000000000000000000000400010259
:10029E00030400010203040001020304000102032F
:1002AE000000000000000000000000000000000040
:1002BE000000000000000000000000000000000030
:1002CE00000000000808090A0B0C0D0E0F080809A3
:1002DE000A0B0C0D0E0F0808090A0B0C0D0E0F0859
:1002EE0008090A0B0C0D0E0F040C0D0E0F0000006A
:1002FE0000040C0D0E0F00000000040C0D0E0F007C
:10030E00000000040C0D0E0F00000000040C0D0E7A
:10031E000F00000000040C0D0E0F00000000040C76
:10032E000D0E0F00000000040C0D0E0F000000005B
:10033E0000000000000000000000000000000000AF
:10034E00000000000000000000000000000000009F
:10035E0000000000000000000408090A0B04080950
:10036E000A0B0408090A0B0408090A0B0408090AF7
:10037E000B0408090A0B0408090A0B0408090A0BE6
:100D6F0041016E0041016F004101700041017100AE
:100D7F004101D80041011F00410120004101210024
:100D8F004101220041012C0041012D0041012E00A3
:100D9F0041012F00410131004100040041000600D4
:100DAF0041000700410008004201D9000041000B3B
:100DBF000041000C0041000D0041000E0041011EDA
:100DCF000041016A0041016B0041016C0041016D5E
:100DDF000042011A000042011600004101D60141F4
:100DEF0001300341000305410001004101D70041DB
:0F0DFF000000004100050041000A00410009000A
:10038E0090C0E0E0541F900002F090C9D17411F0BB
:10039E00900002E0FD7F02121384900002E075F0DF
:1003AE0005A4240EF9740035F0FA7BFFEAC0E0E9EB
:1003BE00C0E078AF7C007D01D0E0F9D0E0FA7E009D
:1003CE007F051209D4900002E075F002A4245EF9B4
:1003DE00740035F0FA7BFFEAC0E0E9C0E078F47C07
:1003EE00007D01D0E0F9D0E0FA7E007F021209D440
:1003FE00900002E075F002A4247EF9740035F0FA44
:10040E007BFFEAC0E0E9C0E078187C017D01D0E016
:10041E00F9D0E0FA7E007F021209D4900002E07556
:10042E00F002A4249EF9740035F0FA7BFFEAC0E0D6
:10043E00E9C0E0781C7C017D01D0E0F9D0E0FA7EC5
:10044E00007F021209D4900002E075F009A424BEC8
:10045E00F9740035F0FA7BFFEAC0E0E9C0E07823DA
:10046E007C017D01D0E0F9D0E0FA7E007F0912090F
:10047E00D4900002E075F011A4244EF9740135F009
:10048E00FA7BFFEAC0E0E9C0E078727C017D01D022
:10049E00E0F9D0E0FA7E007F111209D4900002E05C
:1004AE0075F005A4245EF9740235F0FA7BFFEAC0FC
:1004BE00E0E9C0E078837C017D01D0E0F9D0E0FA7C
:1004CE007E007F051209D4900002E075F009A42485
:1004DE00AEF9740235F0FA7BFFEAC0E0E9C0E078CD
:1004EE00887C017D01D0E0F9D0E0FA7E007F091210
:1004FE0009D4900002E075F005A4243EF97403358A
:10050E00F0FA7BFFEAC0E0E9C0E078917C017D0162
:10051E00D0E0F9D0E0FA7E007F051209D49000AF4A
:10052E00E0600690016E7401F09000F4E0600690B9
:10053E00016F7401F0900118E06006900170740173
:10054E00F090011CE060069001717401F09001239F
:10055E00E060069001D87401F0900172E0600690A0
:10056E00011F7401F0900183E06006900120740178
:10057E00F0900188E060069001217401F0900191E5
:0D058E00E060069001227401F012139B2220
:0300030002059B58
:0D059B00C0E0C0F0C083C082C0D075D008A1
:1005A8007F0312139512135E90C9D4E0FDA3E0FFF8
:1005B80090C9D4EDF0A3EFF0EFFFED9001F9CFF083
:1005C800A3EFF090C9D6E0FDA3E0FF90C9D6EDF007
:1005D800A3EFF0EFFFED9001FBCFF0A3EFF0900158
:1005E800F9E0FEA3E0FF30E00690012C7404F0EF80
:1005F80030E10690012D7404F0EF30E20690012EF0
:100608007404F0EF30E30690012F7404F07FAA120F
:1006180013A19001FAE030E40B9001317404F0E08A
:10062800FF1213A79001F9E0FEA3E0FF30E5069062
:1006380000047404F0EF30E6069000067404F0EF4E
:1006480030E7069000077404F0EE30E006900008EA
:100658007404F09001FBE0FEA3E0FF30E00690CCCC
:100668000B7402F0EF30E10690CC1B7402F0EF300F
:10067800E20690CC2B7402F0EF30E30690CC3B748A
:1006880002F0EF30E40690CC4B7402F0EF30E50650
:1006980090CC5B7402F0EF30E60690CC6B7402F0FD
:1006A800EF30E70690CC7B7402F0EE30E00690CC99
:1006B8008B7402F09001F9E0FEA3E0FF90011AE0CC
:1006C8004EF0A3E04FF090C9CCE0FF30E07190010C
:1006D800D6E0B401259000057402F090C9D8E0FF77
:1006E800540F900130F0E0B4040890C9D9E09000AC
:1006F80001F09001D67402F0803F9001D6E06402C8
:100708007037900130E0B4030A90C9D8E090000334
:10071800F08017900130E0B4041090C9D8E090013F
:10072800D7F090C9D9E0900000F09001D67401F09C
:10073800900005F0E090C9D0F090C9CC7401F01297
:05074800136B12139B6E
:0B074D00D0D0D082D083D0F0D0E032BA
:100F7D0090012CE0FD7F0412138490016EE060431C
:100F8D0090012CE0603D90000BE0D3940050349024
:100F9D0001DF7401F0A37400F0A3740BF0A37401CE
:100FAD00F0A37400F0A374AFF0A37401F0A3740167
:100FBD00F0A37432F07B017A01792CE4FF1207580B
:040FCD0012139B223E
:100FD10090012DE0FD7F0512138490016FE06043C5
:100FE10090012DE0603D90000CE0D39400503490CE
:100FF10001DF7401F0A37400F0A3740CF0A3740179
:10100100F0A37400F0A374F4F0A37401F0A37401CD
:10101100F0A37452F07B017A01792D7F01120758F8
:0410210012139B22E9
:1010250090012EE0FD7F06121384900170E060436D
:1010350090012EE0603D90000DE0D3940050349077
:1010450001DF7401F0A37400F0A3740DF0A3740123
:10105500F0A37401F0A37418F0A37401F0A3740154
:10106500F0A3745AF07B017A01792E7F021207589A
:0410750012139B2295
:1010790090012FE0FD7F07121384900171E0604316
:1010890090012FE0603D90000EE0D3940050349021
:1010990001DF7401F0A37400F0A3740EF0A37401CE
:1010A900F0A37401F0A3741CF0A37401F0A37401FC
:1010B900F0A37462F07B017A01792F7F031207583C
:0410C90012139B2241
:1010CD00900131E0FD7F081213849001D8E0604358
:1010DD00900131E0603D90011EE0D39400503490BA
:1010ED0001DF7401F0A37401F0A3741EF0A3740169
:1010FD00F0A37401F0A37423F0A37401F0A37401A1
:10110D00F0A37496F07B017A0179317F04120758B0
:04111D0012139B22EC
:10112100900004E0FD7F0912138490011FE06043E9
:10113100900004E0603D90016AE0D3940050349047
:1011410001DF7401F0A37401F0A3746AF0A37401C8
:10115100F0A37401F0A37472F0A37401F0A37400FE
:10116100F0A3740FF07B017A0079047F0512075810
:0411710012139B2298
:10117500900006E0FD7F0A121384900120E0604391
:10118500900006E0603D90016BE0D39400503490F0
:1011950001DF7401F0A37401F0A3746BF0A3740173
:1011A500F0A37401F0A37483F0A37401F0A3740099
:1011B500F0A3748FF07B017A0079067F0612075839
:0411C50012139B2244
:1011C900900007E0FD7F0B121384900121E060433A
:1011D900900007E0603D90016CE0D394005034909A
:1011E90001DF7401F0A37401F0A3746CF0A374011E
:1011F900F0A37401F0A37488F0A37401F0A3740040
:10120900F0A374B4F07B017A0079077F07120758BD
:0412190012139B22EF
:10121D00900008E0FD7F0C121384900122E06043E2
:10122D00900008E0603D90016DE0D3940050349043
:10123D0001DF7401F0A37401F0A3746DF0A37401C8
:10124D00F0A37401F0A37491F0A37401F0A37400E2
:10125D00F0A374F6F07B017A0079087F0812075825
:04126D0012139B229B
:100BBC009001EDEBF0A3EAF0A3E9F09001ECEFF07B
:010BCC00FD2B
:100BCD007F10121384E4FF9001EDE0FBA3E0FAA384
:100BDD00E0F91209FAFEEFC39E5061EFF5827583BD
:100BED0000A3120A13FE900001E0FD75F010EEA4B3
:100BFD002401F582E5F034EBF583EDF09001D7E0BB
:100C0D00FD75F010EEA42402F582E5F034EBF583CA
:100C1D00EDF0900000E0FD75F010EEA42403F582D8
:100C2D00E5F034EBF583EDF075F010EEA42400F54E
:100C3D0082E5F034EBF583E4F00F808B9001ECE06E
:100C4D00C454F02401F582E434CCF5837401F0E44E
:100C5D00FF0FEFB405FB9001ECE0FFC454F024024C
:100C6D00F582E434CCF583E054FEFEEFC454F02459
:100C7D0002F582E434CCF583EEF0009001ECE0FF58
:100C8D00C454F02402F582E434CCF583E04401FE33
:100C9D00EFC454F02402F582E434CCF583EEF01267
:020CAD00139B97
:010CAF002222
:0F0758009001DBEFF0FDA3EBF0A3EAF0A3E9F0D3
:100767001209FAFB7F0E1213789001DBE0FF740188
:100777007E00C8EFC8088005C333CE33CED8F9FF53
:100787009001E8EEF0A3EFF0A3EEF0A3EFF09001F5
:10079700DCE0FBA3E0FAA3E0F91209FA24FC60030A
:1007A7000209009001E8E0FEA3E0FF9001D9E05EB6
:1007B700FEA3E05F4E7060900130E0B4031A900131
:1007C700DBE0FF900003E0FD9001E2E0FBA3E0FA2D
:1007D700A3E0F9120CB0801A900130E0B404139032
:1007E70001DBE0FF9001E2E0FBA3E0FAA3E0F912EE
:1007F7000BBC9001DFE0FBA3E0FAA3E0F974011260
:100807000A409001E8E0FEA3E0FF9001D9E04EF036
:10081700A3E04FF00209009001DFE0FBA3E0FAA399
:10082700E0F91209FA60030209009001E8E0FEA36B
:10083700E0FF9001D9E05EFCA3E05F4C7003020982
:1008470000EFF4FFEEF4FE9001D9E05EF0A3E05F65
:10085700F09001DBE0C454F02405F582E434CCF5D4
:1008670083E05401FF60EA9001E5E0F9A3E0FAA311
:10087700E09001EFC9F0A3EAF0A3E9F09001E2E00C
:10088700FBA3E0FAA3E0F9120F2290000AE090C060
:10089700F0F0900009E090C0F1F09001DCE0FBA3DC
:1008A700E0FAA3E0F9E4120A409001DBE0C454F057
:1008B7002404F582E434CCF5837401F0E4FF0FEFF0
:1008C700B405FB9001DBE0C454F02404F582E43462
:1008D700CCF583E4F09001EAE0FEA3E0FF90011A73
:1008E700E05EFCA3E05F4C6010EFF4FFEEF4FE90D7
:0C08F700011AE05EF0A3E05FF012139B1A
:0109030022D1
:0B0F22009001ECEBF0A3EAF0A3E9F073
:100F2D007F11121395E49001F2F09001ECE0FBA318
:100F3D00E0FAA3E0F91209FAFF9001F2E0C39F5025
:100F4D002BE0FEF582758300A3120A13FF9001F3C7
:100F5D00F09001EFE0FBA3E0FAA3E0F99001F8EEC9
:0F0F6D00F0120A8A9001F2E004F080BE12139B8A
:010F7C002252
:100A8A009001F5EBF0A3EAF0A3E9F09001F4EFF09E
:100A9A00FD7F121213849001F4E0FF75F010A42474
:100AAA0001F582E5F034CAF583E0FE9001F5E0FB3A
:100ABA00A3E0FAA3E0F9A3E0FD75F008A4F58285A6
:100ACA00F083EE120A5275F010EFA42408F582E5BD
:100ADA00F034CAF583E0FCED75F008A429F9EA358B
:100AEA00F0FA900001EC120A529001F4E0FF75F05E
:100AFA0010A42409F582E5F034CAF583E0900002D7
:100B0A00120A5275F010EFA4240BF582E5F034CAEC
:100B1A00F583E0900003120A5275F010EFA4240C3A
:100B2A00F582E5F034CAF583E0900004120A5275A2
:100B3A00F010EFA4240DF582E5F034CAF583E090B5
:100B4A000005120A5275F010EFA4240EF582E5F0A2
:100B5A0034CAF583E0900006120A52900001120A84
:100B6A0013604B9001F8E075F008A4FF9001F5E0DE
:100B7A00FBA3E0FAA3E02FF9EA35F0FA900001129C
:100B8A000A1390000AF0900002120A13900009F06A
:100B9A00900003120A1390C0F2F0900004120A1394
:100BAA0090C0F3F0900005120A1390C0F4F01213EB
:020BBA009B227C
:100CB0009001EEEBF0A3EAF0A3E9F09001ECEFF085
:030CC000A3EDF0B1
:100CC300CDEFCDFB7F0F121378E4FF9001EEE0FB35
:100CD300A3E0FAA3E0F91209FAFEEFC39E5026EF50
:100CE300F582758300A3120A13FE9001EDE0441010
:100CF300FD75F010EEA42400F582E5F034EBF583E6
:100D0300EDF00F80C69001ECE0C454F02401F582AD
:100D1300E434CCF5837401F0E4FF0FEFB405FB90EA
:100D230001ECE0FFC454F02402F582E434CCF583F3
:100D3300E054FEFEEFC454F02402F582E434CCF513
:100D430083EEF0009001ECE0FFC454F02402F5823E
:100D5300E434CCF583E04401FEEFC454F02402F5FF
:0B0D630082E434CCF583EEF012139B09
:010D6E002262
:0D135E007F13121395C2AFC2A812139B2279
:0D136B007F14121395D2AFD2A812139B224B
:10131F007F16121395C2AFC2A8D2A97589110213F5
:01132F009B22
:101330007F17121395758A58758CFFD28C02139BF8
:03000B00020E9B47
:100E9B00C0E0C083C082C0D0C2AF758A58758CFFCA
:100EAB0090000BE0D394004003E014F090000CE0B2
:100EBB00D394004003E014F090000DE0D394004075
:100ECB0003E014F090000EE0D394004003E014F024
:100EDB0090011EE0D394004003E014F090016AE00F
:100EEB00D394004003E014F090016BE0D3940040E6
:100EFB0003E014F090016CE0D394004003E014F095
:100F0B0090016DE0D394004003E014F0D2AFD0D049
:070F1B00D082D083D0E03248
:0F1340007F19121395C2AFC2A8C2A912139B2224
:0F134F007F1A121395D2AFD2A8D2A912139B22E4
:0613950090A100EFF02220
:0913840090A100EFF0A3EDF022AE
:0C13780090A100EFF0A3EDF0A3EBF02239
:06139B00E490A10CF02219
:0613A10090A109EFF0220B
:0613A70090A10AEFF02204
:100E1B00021271E493A3F8E493A34003F68001F26A
:100E2B0008DFF48029E493A3F85407240CC8C333D8
:100E3B00C4540F4420C8834004F456800146F6DFA7
:100E4B00E4800B0102040810204080900D6FE47EBB
:100E5B00019360BCA3FF543F30E509541FFEE4939C
:100E6B00A360010ECF54C025E060A840B8E493A363
:100E7B00FAE493A3F8E493A3C8C582C8CAC583CA8E
:100E8B00F0A3C8C582C8CAC583CADFE9DEE780BE46
:010E0E0000E3
:10090400E709F608DFFA8046E709F208DFFA803ED5
:1009140088828C83E709F0A3DFFA8032E309F608C2
:10092400DFFA8078E309F208DFFA807088828C832A
:10093400E309F0A3DFFA806489828A83E0A3F608DE
:10094400DFFA805889828A83E0A3F208DFFA804CB8
:1009540080D280FA80C680D4806980F2803380108F
:1009640080A680EA809A80A880DA80E280CA8033F8
:1009740089828A83ECFAE493A3C8C582C8CCC58370
:10098400CCF0A3C8C582C8CCC583CCDFE9DEE78040
:100994000D89828A83E493A3F608DFF9ECFAA9F0BF
:1009A400EDFB2289828A83ECFAE0A3C8C582C8CC15
:1009B400C583CCF0A3C8C582C8CCC583CCDFEADE2E
:1009C400E880DB89828A83E493A3F208DFF980CC90
:1009D40088F0EF60010E4E60C388F0ED2402B40489
:1009E4000050B9F582EB2402B4040050AF23234530
:0609F400822390095473F8
:1009FA00BB010689828A83E0225002E722BBFE02FB
:090A0A00E32289828A83E493222D
:100A1300BB010CE58229F582E5833AF583E0225098
:100A230006E92582F8E622BBFE06E92582F8E222E2
:0D0A3300E58229F582E5833AF583E49322FC
:100A4000BB010689828A83F0225002F722BBFE0195
:020A5000F3228F
:100A5200F8BB010DE58229F582E5833AF583E8F0DA
:100A6200225006E92582C8F622BBFE05E92582C886
:020A7200F2226E
:100A7400C5F0F8A3E028F0C5F0F8E582158270020D
:060A84001583E038F022AA
:00000001FF
